{
  "_format": "hh-sol-artifact-1",
  "contractName": "Meow",
  "sourceName": "contracts/MEOW.sol",
  "abi": [
    {
      "inputs": [
        {
          "internalType": "address",
          "name": "_nftAddress",
          "type": "address"
        },
        {
          "internalType": "address",
          "name": "_teamAddress",
          "type": "address"
        }
      ],
      "stateMutability": "nonpayable",
      "type": "constructor"
    },
    {
      "anonymous": false,
      "inputs": [
        {
          "indexed": true,
          "internalType": "address",
          "name": "owner",
          "type": "address"
        },
        {
          "indexed": true,
          "internalType": "address",
          "name": "spender",
          "type": "address"
        },
        {
          "indexed": false,
          "internalType": "uint256",
          "name": "value",
          "type": "uint256"
        }
      ],
      "name": "Approval",
      "type": "event"
    },
    {
      "anonymous": false,
      "inputs": [
        {
          "indexed": false,
          "internalType": "uint256",
          "name": "tokenId1",
          "type": "uint256"
        },
        {
          "indexed": false,
          "internalType": "uint256",
          "name": "tokenId2",
          "type": "uint256"
        }
      ],
      "name": "GameStarted",
      "type": "event"
    },
    {
      "anonymous": false,
      "inputs": [
        {
          "indexed": true,
          "internalType": "address",
          "name": "previousOwner",
          "type": "address"
        },
        {
          "indexed": true,
          "internalType": "address",
          "name": "newOwner",
          "type": "address"
        }
      ],
      "name": "OwnershipTransferred",
      "type": "event"
    },
    {
      "anonymous": false,
      "inputs": [
        {
          "indexed": true,
          "internalType": "address",
          "name": "from",
          "type": "address"
        },
        {
          "indexed": true,
          "internalType": "address",
          "name": "to",
          "type": "address"
        },
        {
          "indexed": false,
          "internalType": "uint256",
          "name": "value",
          "type": "uint256"
        }
      ],
      "name": "Transfer",
      "type": "event"
    },
    {
      "inputs": [
        {
          "internalType": "address",
          "name": "owner",
          "type": "address"
        },
        {
          "internalType": "address",
          "name": "spender",
          "type": "address"
        }
      ],
      "name": "allowance",
      "outputs": [
        {
          "internalType": "uint256",
          "name": "",
          "type": "uint256"
        }
      ],
      "stateMutability": "view",
      "type": "function"
    },
    {
      "inputs": [
        {
          "internalType": "address",
          "name": "spender",
          "type": "address"
        },
        {
          "internalType": "uint256",
          "name": "amount",
          "type": "uint256"
        }
      ],
      "name": "approve",
      "outputs": [
        {
          "internalType": "bool",
          "name": "",
          "type": "bool"
        }
      ],
      "stateMutability": "nonpayable",
      "type": "function"
    },
    {
      "inputs": [
        {
          "internalType": "address",
          "name": "account",
          "type": "address"
        }
      ],
      "name": "balanceOf",
      "outputs": [
        {
          "internalType": "uint256",
          "name": "",
          "type": "uint256"
        }
      ],
      "stateMutability": "view",
      "type": "function"
    },
    {
      "inputs": [],
      "name": "big",
      "outputs": [
        {
          "internalType": "bool",
          "name": "",
          "type": "bool"
        }
      ],
      "stateMutability": "view",
      "type": "function"
    },
    {
      "inputs": [],
      "name": "decimals",
      "outputs": [
        {
          "internalType": "uint8",
          "name": "",
          "type": "uint8"
        }
      ],
      "stateMutability": "view",
      "type": "function"
    },
    {
      "inputs": [
        {
          "internalType": "address",
          "name": "spender",
          "type": "address"
        },
        {
          "internalType": "uint256",
          "name": "subtractedValue",
          "type": "uint256"
        }
      ],
      "name": "decreaseAllowance",
      "outputs": [
        {
          "internalType": "bool",
          "name": "",
          "type": "bool"
        }
      ],
      "stateMutability": "nonpayable",
      "type": "function"
    },
    {
      "inputs": [],
      "name": "firstrandom",
      "outputs": [
        {
          "internalType": "uint256",
          "name": "",
          "type": "uint256"
        }
      ],
      "stateMutability": "view",
      "type": "function"
    },
    {
      "inputs": [],
      "name": "gamePrice",
      "outputs": [
        {
          "internalType": "uint256",
          "name": "",
          "type": "uint256"
        }
      ],
      "stateMutability": "view",
      "type": "function"
    },
    {
      "inputs": [
        {
          "internalType": "address",
          "name": "spender",
          "type": "address"
        },
        {
          "internalType": "uint256",
          "name": "addedValue",
          "type": "uint256"
        }
      ],
      "name": "increaseAllowance",
      "outputs": [
        {
          "internalType": "bool",
          "name": "",
          "type": "bool"
        }
      ],
      "stateMutability": "nonpayable",
      "type": "function"
    },
    {
      "inputs": [],
      "name": "iterations",
      "outputs": [
        {
          "internalType": "uint256",
          "name": "",
          "type": "uint256"
        }
      ],
      "stateMutability": "view",
      "type": "function"
    },
    {
      "inputs": [],
      "name": "jackpotAmount",
      "outputs": [
        {
          "internalType": "uint256",
          "name": "",
          "type": "uint256"
        }
      ],
      "stateMutability": "view",
      "type": "function"
    },
    {
      "inputs": [
        {
          "internalType": "uint256",
          "name": "tokenId",
          "type": "uint256"
        },
        {
          "internalType": "uint256",
          "name": "roomnum",
          "type": "uint256"
        }
      ],
      "name": "joinBigLobby",
      "outputs": [],
      "stateMutability": "payable",
      "type": "function"
    },
    {
      "inputs": [
        {
          "internalType": "uint256",
          "name": "tokenId",
          "type": "uint256"
        }
      ],
      "name": "leaveLobby",
      "outputs": [],
      "stateMutability": "nonpayable",
      "type": "function"
    },
    {
      "inputs": [],
      "name": "name",
      "outputs": [
        {
          "internalType": "string",
          "name": "",
          "type": "string"
        }
      ],
      "stateMutability": "view",
      "type": "function"
    },
    {
      "inputs": [],
      "name": "owner",
      "outputs": [
        {
          "internalType": "address",
          "name": "",
          "type": "address"
        }
      ],
      "stateMutability": "view",
      "type": "function"
    },
    {
      "inputs": [],
      "name": "prime",
      "outputs": [
        {
          "internalType": "uint256",
          "name": "",
          "type": "uint256"
        }
      ],
      "stateMutability": "view",
      "type": "function"
    },
    {
      "inputs": [],
      "name": "renounceOwnership",
      "outputs": [],
      "stateMutability": "nonpayable",
      "type": "function"
    },
    {
      "inputs": [
        {
          "internalType": "uint256",
          "name": "",
          "type": "uint256"
        }
      ],
      "name": "room",
      "outputs": [
        {
          "internalType": "uint256",
          "name": "random1",
          "type": "uint256"
        },
        {
          "internalType": "uint256",
          "name": "random2",
          "type": "uint256"
        },
        {
          "internalType": "uint256",
          "name": "tokenid1",
          "type": "uint256"
        },
        {
          "internalType": "uint256",
          "name": "tokenid2",
          "type": "uint256"
        },
        {
          "internalType": "bool",
          "name": "big",
          "type": "bool"
        }
      ],
      "stateMutability": "view",
      "type": "function"
    },
    {
      "inputs": [],
      "name": "secondrandom",
      "outputs": [
        {
          "internalType": "uint256",
          "name": "",
          "type": "uint256"
        }
      ],
      "stateMutability": "view",
      "type": "function"
    },
    {
      "inputs": [
        {
          "internalType": "address",
          "name": "",
          "type": "address"
        }
      ],
      "name": "seeds",
      "outputs": [
        {
          "internalType": "uint256",
          "name": "",
          "type": "uint256"
        }
      ],
      "stateMutability": "view",
      "type": "function"
    },
    {
      "inputs": [
        {
          "internalType": "uint256",
          "name": "newGamePrice",
          "type": "uint256"
        }
      ],
      "name": "setGamePrice",
      "outputs": [],
      "stateMutability": "nonpayable",
      "type": "function"
    },
    {
      "inputs": [
        {
          "internalType": "address",
          "name": "newNftAddress",
          "type": "address"
        }
      ],
      "name": "setNftAddress",
      "outputs": [],
      "stateMutability": "nonpayable",
      "type": "function"
    },
    {
      "inputs": [
        {
          "internalType": "address",
          "name": "newTeamAddress",
          "type": "address"
        }
      ],
      "name": "setTeamAddress",
      "outputs": [],
      "stateMutability": "nonpayable",
      "type": "function"
    },
    {
      "inputs": [
        {
          "internalType": "uint256",
          "name": "amount",
          "type": "uint256"
        }
      ],
      "name": "stake",
      "outputs": [],
      "stateMutability": "nonpayable",
      "type": "function"
    },
    {
      "inputs": [
        {
          "internalType": "address",
          "name": "",
          "type": "address"
        }
      ],
      "name": "stakeAmount",
      "outputs": [
        {
          "internalType": "uint256",
          "name": "",
          "type": "uint256"
        }
      ],
      "stateMutability": "view",
      "type": "function"
    },
    {
      "inputs": [],
      "name": "stakeTotal",
      "outputs": [
        {
          "internalType": "uint256",
          "name": "",
          "type": "uint256"
        }
      ],
      "stateMutability": "view",
      "type": "function"
    },
    {
      "inputs": [],
      "name": "symbol",
      "outputs": [
        {
          "internalType": "string",
          "name": "",
          "type": "string"
        }
      ],
      "stateMutability": "view",
      "type": "function"
    },
    {
      "inputs": [],
      "name": "teamAddress",
      "outputs": [
        {
          "internalType": "address",
          "name": "",
          "type": "address"
        }
      ],
      "stateMutability": "view",
      "type": "function"
    },
    {
      "inputs": [],
      "name": "tmpgamePrice",
      "outputs": [
        {
          "internalType": "uint256",
          "name": "",
          "type": "uint256"
        }
      ],
      "stateMutability": "view",
      "type": "function"
    },
    {
      "inputs": [],
      "name": "totalSupply",
      "outputs": [
        {
          "internalType": "uint256",
          "name": "",
          "type": "uint256"
        }
      ],
      "stateMutability": "view",
      "type": "function"
    },
    {
      "inputs": [
        {
          "internalType": "address",
          "name": "to",
          "type": "address"
        },
        {
          "internalType": "uint256",
          "name": "amount",
          "type": "uint256"
        }
      ],
      "name": "transfer",
      "outputs": [
        {
          "internalType": "bool",
          "name": "",
          "type": "bool"
        }
      ],
      "stateMutability": "nonpayable",
      "type": "function"
    },
    {
      "inputs": [
        {
          "internalType": "address",
          "name": "from",
          "type": "address"
        },
        {
          "internalType": "address",
          "name": "to",
          "type": "address"
        },
        {
          "internalType": "uint256",
          "name": "amount",
          "type": "uint256"
        }
      ],
      "name": "transferFrom",
      "outputs": [
        {
          "internalType": "bool",
          "name": "",
          "type": "bool"
        }
      ],
      "stateMutability": "nonpayable",
      "type": "function"
    },
    {
      "inputs": [
        {
          "internalType": "address",
          "name": "newOwner",
          "type": "address"
        }
      ],
      "name": "transferOwnership",
      "outputs": [],
      "stateMutability": "nonpayable",
      "type": "function"
    },
    {
      "inputs": [
        {
          "internalType": "uint256",
          "name": "amount",
          "type": "uint256"
        }
      ],
      "name": "unStake",
      "outputs": [],
      "stateMutability": "nonpayable",
      "type": "function"
    },
    {
      "inputs": [],
      "name": "waitingId",
      "outputs": [
        {
          "internalType": "uint256",
          "name": "",
          "type": "uint256"
        }
      ],
      "stateMutability": "view",
      "type": "function"
    }
  ],
  "bytecode": "0x60806040526611c37937e0800060085560006009556000600a556000600b556000600e557104f627b3bbd341d240517fe3db99ad3b2c276016556103e86017553480156200004c57600080fd5b5060405162003fa338038062003fa383398181016040528101906200007291906200031a565b6040518060400160405280600481526020017f4d656f77000000000000000000000000000000000000000000000000000000008152506040518060400160405280600481526020017f4d656f77000000000000000000000000000000000000000000000000000000008152508160039081620000ef9190620005db565b508060049081620001019190620005db565b5050506200012462000118620001e260201b60201c565b620001ea60201b60201c565b81600660006101000a81548173ffffffffffffffffffffffffffffffffffffffff021916908373ffffffffffffffffffffffffffffffffffffffff16021790555080600d60006101000a81548173ffffffffffffffffffffffffffffffffffffffff021916908373ffffffffffffffffffffffffffffffffffffffff1602179055504244604051602001620001bb929190620006e7565b6040516020818303038152906040528051906020012060001c600781905550505062000717565b600033905090565b6000600560009054906101000a900473ffffffffffffffffffffffffffffffffffffffff16905081600560006101000a81548173ffffffffffffffffffffffffffffffffffffffff021916908373ffffffffffffffffffffffffffffffffffffffff1602179055508173ffffffffffffffffffffffffffffffffffffffff168173ffffffffffffffffffffffffffffffffffffffff167f8be0079c531659141344cd1fd0a4f28419497f9722a3daafe3b4186f6b6457e060405160405180910390a35050565b600080fd5b600073ffffffffffffffffffffffffffffffffffffffff82169050919050565b6000620002e282620002b5565b9050919050565b620002f481620002d5565b81146200030057600080fd5b50565b6000815190506200031481620002e9565b92915050565b60008060408385031215620003345762000333620002b0565b5b6000620003448582860162000303565b9250506020620003578582860162000303565b9150509250929050565b600081519050919050565b7f4e487b7100000000000000000000000000000000000000000000000000000000600052604160045260246000fd5b7f4e487b7100000000000000000000000000000000000000000000000000000000600052602260045260246000fd5b60006002820490506001821680620003e357607f821691505b602082108103620003f957620003f86200039b565b5b50919050565b60008190508160005260206000209050919050565b60006020601f8301049050919050565b600082821b905092915050565b600060088302620004637fffffffffffffffffffffffffffffffffffffffffffffffffffffffffffffffff8262000424565b6200046f868362000424565b95508019841693508086168417925050509392505050565b6000819050919050565b6000819050919050565b6000620004bc620004b6620004b08462000487565b62000491565b62000487565b9050919050565b6000819050919050565b620004d8836200049b565b620004f0620004e782620004c3565b84845462000431565b825550505050565b600090565b62000507620004f8565b62000514818484620004cd565b505050565b5b818110156200053c5762000530600082620004fd565b6001810190506200051a565b5050565b601f8211156200058b576200055581620003ff565b620005608462000414565b8101602085101562000570578190505b620005886200057f8562000414565b83018262000519565b50505b505050565b600082821c905092915050565b6000620005b06000198460080262000590565b1980831691505092915050565b6000620005cb83836200059d565b9150826002028217905092915050565b620005e68262000361565b67ffffffffffffffff8111156200060257620006016200036c565b5b6200060e8254620003ca565b6200061b82828562000540565b600060209050601f8311600181146200065357600084156200063e578287015190505b6200064a8582620005bd565b865550620006ba565b601f1984166200066386620003ff565b60005b828110156200068d5784890151825560018201915060208501945060208101905062000666565b86831015620006ad5784890151620006a9601f8916826200059d565b8355505b6001600288020188555050505b505050505050565b6000819050919050565b620006e1620006db8262000487565b620006c2565b82525050565b6000620006f58285620006cc565b602082019150620007078284620006cc565b6020820191508190509392505050565b61387c80620007276000396000f3fe6080604052600436106102045760003560e01c8063887b13a311610118578063a457c2d7116100a0578063bf1352671161006f578063bf13526714610762578063c7ee005e1461079f578063dd62ed3e146107ca578063f2fde38b14610807578063f8663e231461083057610204565b8063a457c2d714610694578063a694fc3a146106d1578063a9059cbb146106fa578063b1eac37e1461073757610204565b80638f7c4e5e116100e75780638f7c4e5e146105bf57806391b090f6146105ea578063948428f01461061557806395d89b411461063e57806396bf15bf1461066957610204565b8063887b13a3146105225780638c680c0f1461054d5780638da5cb5b146105785780638dd9254a146105a357610204565b8063313ce5671161019b5780634b5c8bdf1161016a5780634b5c8bdf146104515780635d3eea911461047c5780636690864e146104a557806370a08231146104ce578063715018a61461050b57610204565b8063313ce5671461038157806339509351146103ac5780634358d2be146103e957806348d0528a1461041457610204565b806318160ddd116101d757806318160ddd146102c55780631c75f085146102f057806323b872dd1461031b57806326126d461461035857610204565b8063035545241461020957806306fdde0314610234578063095ea7b31461025f5780630b102d1a1461029c575b600080fd5b34801561021557600080fd5b5061021e610871565b60405161022b9190612883565b60405180910390f35b34801561024057600080fd5b50610249610877565b604051610256919061292e565b60405180910390f35b34801561026b57600080fd5b50610286600480360381019061028191906129df565b610909565b6040516102939190612a3a565b60405180910390f35b3480156102a857600080fd5b506102c360048036038101906102be9190612a55565b61092c565b005b3480156102d157600080fd5b506102da610978565b6040516102e79190612883565b60405180910390f35b3480156102fc57600080fd5b50610305610982565b6040516103129190612a91565b60405180910390f35b34801561032757600080fd5b50610342600480360381019061033d9190612aac565b6109a8565b60405161034f9190612a3a565b60405180910390f35b34801561036457600080fd5b5061037f600480360381019061037a9190612aff565b6109d7565b005b34801561038d57600080fd5b506103966109e9565b6040516103a39190612b48565b60405180910390f35b3480156103b857600080fd5b506103d360048036038101906103ce91906129df565b6109ee565b6040516103e09190612a3a565b60405180910390f35b3480156103f557600080fd5b506103fe610a25565b60405161040b9190612883565b60405180910390f35b34801561042057600080fd5b5061043b60048036038101906104369190612a55565b610a2b565b6040516104489190612883565b60405180910390f35b34801561045d57600080fd5b50610466610a43565b6040516104739190612883565b60405180910390f35b34801561048857600080fd5b506104a3600480360381019061049e9190612aff565b610a49565b005b3480156104b157600080fd5b506104cc60048036038101906104c79190612a55565b610d1b565b005b3480156104da57600080fd5b506104f560048036038101906104f09190612a55565b610d67565b6040516105029190612883565b60405180910390f35b34801561051757600080fd5b50610520610daf565b005b34801561052e57600080fd5b50610537610dc3565b6040516105449190612a3a565b60405180910390f35b34801561055957600080fd5b50610562610dd6565b60405161056f9190612883565b60405180910390f35b34801561058457600080fd5b5061058d610ddc565b60405161059a9190612a91565b60405180910390f35b6105bd60048036038101906105b89190612b63565b610e06565b005b3480156105cb57600080fd5b506105d461147e565b6040516105e19190612883565b60405180910390f35b3480156105f657600080fd5b506105ff611484565b60405161060c9190612883565b60405180910390f35b34801561062157600080fd5b5061063c60048036038101906106379190612aff565b61148a565b005b34801561064a57600080fd5b5061065361167a565b604051610660919061292e565b60405180910390f35b34801561067557600080fd5b5061067e61170c565b60405161068b9190612883565b60405180910390f35b3480156106a057600080fd5b506106bb60048036038101906106b691906129df565b611712565b6040516106c89190612a3a565b60405180910390f35b3480156106dd57600080fd5b506106f860048036038101906106f39190612aff565b611789565b005b34801561070657600080fd5b50610721600480360381019061071c91906129df565b6118b2565b60405161072e9190612a3a565b60405180910390f35b34801561074357600080fd5b5061074c6118d5565b6040516107599190612883565b60405180910390f35b34801561076e57600080fd5b5061078960048036038101906107849190612a55565b6118db565b6040516107969190612883565b60405180910390f35b3480156107ab57600080fd5b506107b46118f3565b6040516107c19190612883565b60405180910390f35b3480156107d657600080fd5b506107f160048036038101906107ec9190612ba3565b6118f9565b6040516107fe9190612883565b60405180910390f35b34801561081357600080fd5b5061082e60048036038101906108299190612a55565b611980565b005b34801561083c57600080fd5b5061085760048036038101906108529190612aff565b611a03565b604051610868959493929190612be3565b60405180910390f35b600a5481565b60606003805461088690612c65565b80601f01602080910402602001604051908101604052809291908181526020018280546108b290612c65565b80156108ff5780601f106108d4576101008083540402835291602001916108ff565b820191906000526020600020905b8154815290600101906020018083116108e257829003601f168201915b5050505050905090565b600080610914611a46565b9050610921818585611a4e565b600191505092915050565b610934611c17565b80600660006101000a81548173ffffffffffffffffffffffffffffffffffffffff021916908373ffffffffffffffffffffffffffffffffffffffff16021790555050565b6000600254905090565b600d60009054906101000a900473ffffffffffffffffffffffffffffffffffffffff1681565b6000806109b3611a46565b90506109c0858285611c95565b6109cb858585611d21565b60019150509392505050565b6109df611c17565b8060088190555050565b600090565b6000806109f9611a46565b9050610a1a818585610a0b85896118f9565b610a159190612cc5565b611a4e565b600191505092915050565b60175481565b60156020528060005260406000206000915090505481565b60105481565b601460003373ffffffffffffffffffffffffffffffffffffffff1673ffffffffffffffffffffffffffffffffffffffff168152602001908152602001600020548110610aca576040517f08c379a0000000000000000000000000000000000000000000000000000000008152600401610ac190612d6b565b60405180910390fd5b610ad433826118b2565b5080601460003373ffffffffffffffffffffffffffffffffffffffff1673ffffffffffffffffffffffffffffffffffffffff1681526020019081526020016000205403610ca95760005b601180549050811015610c60573373ffffffffffffffffffffffffffffffffffffffff1660118281548110610b5657610b55612d8b565b5b9060005260206000200160009054906101000a900473ffffffffffffffffffffffffffffffffffffffff1673ffffffffffffffffffffffffffffffffffffffff1603610c4d5760116001601180549050610bb09190612dba565b81548110610bc157610bc0612d8b565b5b9060005260206000200160009054906101000a900473ffffffffffffffffffffffffffffffffffffffff1660118281548110610c0057610bff612d8b565b5b9060005260206000200160006101000a81548173ffffffffffffffffffffffffffffffffffffffff021916908373ffffffffffffffffffffffffffffffffffffffff160217905550610c60565b8080610c5890612dee565b915050610b1e565b506011805480610c7357610c72612e36565b5b6001900381819060005260206000200160006101000a81549073ffffffffffffffffffffffffffffffffffffffff021916905590555b80601460003373ffffffffffffffffffffffffffffffffffffffff1673ffffffffffffffffffffffffffffffffffffffff1681526020019081526020016000206000828254610cf89190612dba565b925050819055508060106000828254610d119190612dba565b9250508190555050565b610d23611c17565b80600d60006101000a81548173ffffffffffffffffffffffffffffffffffffffff021916908373ffffffffffffffffffffffffffffffffffffffff16021790555050565b60008060008373ffffffffffffffffffffffffffffffffffffffff1673ffffffffffffffffffffffffffffffffffffffff168152602001908152602001600020549050919050565b610db7611c17565b610dc16000611f97565b565b601260009054906101000a900460ff1681565b60095481565b6000600560009054906101000a900473ffffffffffffffffffffffffffffffffffffffff16905090565b8160095403610e4a576040517f08c379a0000000000000000000000000000000000000000000000000000000008152600401610e4190612eb1565b60405180910390fd5b610e52611a46565b73ffffffffffffffffffffffffffffffffffffffff16600660009054906101000a900473ffffffffffffffffffffffffffffffffffffffff1673ffffffffffffffffffffffffffffffffffffffff16636352211e846040518263ffffffff1660e01b8152600401610ec39190612883565b602060405180830381865afa158015610ee0573d6000803e3d6000fd5b505050506040513d601f19601f82011682018060405250810190610f049190612ee6565b73ffffffffffffffffffffffffffffffffffffffff1614610f5a576040517f08c379a0000000000000000000000000000000000000000000000000000000008152600401610f5190612f5f565b60405180910390fd5b346008541480610f7e575034610f7c600560085461205d90919063ffffffff16565b145b610fbd576040517f08c379a0000000000000000000000000000000000000000000000000000000008152600401610fb490612fcb565b60405180910390fd5b6001601260006101000a81548160ff02191690831515021790555060006009540361122c578160136000838152602001908152602001600020600301819055508160098190555061101a600560085461205d90919063ffffffff16565b34036110e9576000601260006101000a81548160ff02191690831515021790555060005b60058112156110e357600060016004336018600081548092919061106190612dee565b91905055426001436110739190612dba565b40604051602001611087949392919061307f565b6040516020818303038152906040528051906020012060001c6110aa91906130fc565b6110b49190612cc5565b905080600a54116110c557806110c9565b600a545b600a819055505080806110db90613137565b91505061103e565b5061115b565b60016004336018600081548092919061110190612dee565b91905055426001436111139190612dba565b40604051602001611127949392919061307f565b6040516020818303038152906040528051906020012060001c61114a91906130fc565b6111549190612cc5565b600a819055505b601260009054906101000a900460ff166013600083815260200190815260200160002060050160006101000a81548160ff021916908315150217905550600a54601360008381526020019081526020016000206001018190555033601360008381526020019081526020016000206000016000815481106111df576111de612d8b565b5b9060005260206000200160006101000a81548173ffffffffffffffffffffffffffffffffffffffff021916908373ffffffffffffffffffffffffffffffffffffffff16021790555061147a565b81601360008381526020019081526020016000206004018190555061125d600560085461205d90919063ffffffff16565b340361132c576000601260006101000a81548160ff02191690831515021790555060005b60058112156113265760006001600433601860008154809291906112a490612dee565b91905055426001436112b69190612dba565b406040516020016112ca949392919061307f565b6040516020818303038152906040528051906020012060001c6112ed91906130fc565b6112f79190612cc5565b905080600b5411611308578061130c565b600b545b600b8190555050808061131e90613137565b915050611281565b5061139e565b60016004336018600081548092919061134490612dee565b91905055426001436113569190612dba565b4060405160200161136a949392919061307f565b6040516020818303038152906040528051906020012060001c61138d91906130fc565b6113979190612cc5565b600b819055505b600b54601360008381526020019081526020016000206002018190555033601360008381526020019081526020016000206000016001815481106113e5576113e4612d8b565b5b9060005260206000200160006101000a81548173ffffffffffffffffffffffffffffffffffffffff021916908373ffffffffffffffffffffffffffffffffffffffff16021790555061143682612073565b7fa2dfaa3573b86004ec9d4d4abe5068d942579c59da4da8cd0d9e45e71a393bc16009548360405161146992919061317f565b60405180910390a160006009819055505b5050565b600b5481565b600f5481565b611492611a46565b73ffffffffffffffffffffffffffffffffffffffff16600660009054906101000a900473ffffffffffffffffffffffffffffffffffffffff1673ffffffffffffffffffffffffffffffffffffffff16636352211e836040518263ffffffff1660e01b81526004016115039190612883565b602060405180830381865afa158015611520573d6000803e3d6000fd5b505050506040513d601f19601f820116820180604052508101906115449190612ee6565b73ffffffffffffffffffffffffffffffffffffffff161461159a576040517f08c379a000000000000000000000000000000000000000000000000000000000815260040161159190612f5f565b60405180910390fd5b80600954146115de576040517f08c379a00000000000000000000000000000000000000000000000000000000081526004016115d5906131f4565b60405180910390fd5b6000600981905550600660009054906101000a900473ffffffffffffffffffffffffffffffffffffffff1673ffffffffffffffffffffffffffffffffffffffff166323b872dd3033846040518463ffffffff1660e01b815260040161164593929190613214565b600060405180830381600087803b15801561165f57600080fd5b505af1158015611673573d6000803e3d6000fd5b5050505050565b60606004805461168990612c65565b80601f01602080910402602001604051908101604052809291908181526020018280546116b590612c65565b80156117025780601f106116d757610100808354040283529160200191611702565b820191906000526020600020905b8154815290600101906020018083116116e557829003601f168201915b5050505050905090565b60085481565b60008061171d611a46565b9050600061172b82866118f9565b905083811015611770576040517f08c379a0000000000000000000000000000000000000000000000000000000008152600401611767906132bd565b60405180910390fd5b61177d8286868403611a4e565b60019250505092915050565b6117943330836109a8565b506000601460003373ffffffffffffffffffffffffffffffffffffffff1673ffffffffffffffffffffffffffffffffffffffff1681526020019081526020016000205403611840576011339080600181540180825580915050600190039060005260206000200160009091909190916101000a81548173ffffffffffffffffffffffffffffffffffffffff021916908373ffffffffffffffffffffffffffffffffffffffff1602179055505b80601460003373ffffffffffffffffffffffffffffffffffffffff1673ffffffffffffffffffffffffffffffffffffffff168152602001908152602001600020600082825461188f9190612cc5565b9250508190555080601060008282546118a89190612cc5565b9250508190555050565b6000806118bd611a46565b90506118ca818585611d21565b600191505092915050565b600e5481565b60146020528060005260406000206000915090505481565b60165481565b6000600160008473ffffffffffffffffffffffffffffffffffffffff1673ffffffffffffffffffffffffffffffffffffffff16815260200190815260200160002060008373ffffffffffffffffffffffffffffffffffffffff1673ffffffffffffffffffffffffffffffffffffffff16815260200190815260200160002054905092915050565b611988611c17565b600073ffffffffffffffffffffffffffffffffffffffff168173ffffffffffffffffffffffffffffffffffffffff16036119f7576040517f08c379a00000000000000000000000000000000000000000000000000000000081526004016119ee9061334f565b60405180910390fd5b611a0081611f97565b50565b60136020528060005260406000206000915090508060010154908060020154908060030154908060040154908060050160009054906101000a900460ff16905085565b600033905090565b600073ffffffffffffffffffffffffffffffffffffffff168373ffffffffffffffffffffffffffffffffffffffff1603611abd576040517f08c379a0000000000000000000000000000000000000000000000000000000008152600401611ab4906133e1565b60405180910390fd5b600073ffffffffffffffffffffffffffffffffffffffff168273ffffffffffffffffffffffffffffffffffffffff1603611b2c576040517f08c379a0000000000000000000000000000000000000000000000000000000008152600401611b2390613473565b60405180910390fd5b80600160008573ffffffffffffffffffffffffffffffffffffffff1673ffffffffffffffffffffffffffffffffffffffff16815260200190815260200160002060008473ffffffffffffffffffffffffffffffffffffffff1673ffffffffffffffffffffffffffffffffffffffff168152602001908152602001600020819055508173ffffffffffffffffffffffffffffffffffffffff168373ffffffffffffffffffffffffffffffffffffffff167f8c5be1e5ebec7d5bd14f71427d1e84f3dd0314c0f7b2291e5b200ac8c7c3b92583604051611c0a9190612883565b60405180910390a3505050565b611c1f611a46565b73ffffffffffffffffffffffffffffffffffffffff16611c3d610ddc565b73ffffffffffffffffffffffffffffffffffffffff1614611c93576040517f08c379a0000000000000000000000000000000000000000000000000000000008152600401611c8a906134df565b60405180910390fd5b565b6000611ca184846118f9565b90507fffffffffffffffffffffffffffffffffffffffffffffffffffffffffffffffff8114611d1b5781811015611d0d576040517f08c379a0000000000000000000000000000000000000000000000000000000008152600401611d049061354b565b60405180910390fd5b611d1a8484848403611a4e565b5b50505050565b600073ffffffffffffffffffffffffffffffffffffffff168373ffffffffffffffffffffffffffffffffffffffff1603611d90576040517f08c379a0000000000000000000000000000000000000000000000000000000008152600401611d87906135dd565b60405180910390fd5b600073ffffffffffffffffffffffffffffffffffffffff168273ffffffffffffffffffffffffffffffffffffffff1603611dff576040517f08c379a0000000000000000000000000000000000000000000000000000000008152600401611df69061366f565b60405180910390fd5b611e0a838383612495565b60008060008573ffffffffffffffffffffffffffffffffffffffff1673ffffffffffffffffffffffffffffffffffffffff16815260200190815260200160002054905081811015611e90576040517f08c379a0000000000000000000000000000000000000000000000000000000008152600401611e8790613701565b60405180910390fd5b8181036000808673ffffffffffffffffffffffffffffffffffffffff1673ffffffffffffffffffffffffffffffffffffffff16815260200190815260200160002081905550816000808573ffffffffffffffffffffffffffffffffffffffff1673ffffffffffffffffffffffffffffffffffffffff168152602001908152602001600020600082825401925050819055508273ffffffffffffffffffffffffffffffffffffffff168473ffffffffffffffffffffffffffffffffffffffff167fddf252ad1be2c89b69c2b068fc378daa952ba7f163c4a11628f55a4df523b3ef84604051611f7e9190612883565b60405180910390a3611f9184848461249a565b50505050565b6000600560009054906101000a900473ffffffffffffffffffffffffffffffffffffffff16905081600560006101000a81548173ffffffffffffffffffffffffffffffffffffffff021916908373ffffffffffffffffffffffffffffffffffffffff1602179055508173ffffffffffffffffffffffffffffffffffffffff168173ffffffffffffffffffffffffffffffffffffffff167f8be0079c531659141344cd1fd0a4f28419497f9722a3daafe3b4186f6b6457e060405160405180910390a35050565b6000818361206b9190613721565b905092915050565b6000600b5490506000600660009054906101000a900473ffffffffffffffffffffffffffffffffffffffff1673ffffffffffffffffffffffffffffffffffffffff16636352211e6009546040518263ffffffff1660e01b81526004016120d99190612883565b602060405180830381865afa1580156120f6573d6000803e3d6000fd5b505050506040513d601f19601f8201168201806040525081019061211a9190612ee6565b90506000600660009054906101000a900473ffffffffffffffffffffffffffffffffffffffff1673ffffffffffffffffffffffffffffffffffffffff16636352211e856040518263ffffffff1660e01b81526004016121799190612883565b602060405180830381865afa158015612196573d6000803e3d6000fd5b505050506040513d601f19601f820116820180604052508101906121ba9190612ee6565b90506121c782600161249f565b6121d281600161249f565b601260009054906101000a900460ff16612207576121fc600560085461205d90919063ffffffff16565b600f81905550612211565b600854600f819055505b6003600c5403612227576122268282856125f5565b5b6003830361223d5761223c8183600c546125f5565b5b82600c54036122635761225282600f546126d8565b61225e81600f546126d8565b61248f565b82600c5411156123355761229f8261229a601461228c600c600f5461205d90919063ffffffff16565b61275390919063ffffffff16565b6126d8565b600660009054906101000a900473ffffffffffffffffffffffffffffffffffffffff1673ffffffffffffffffffffffffffffffffffffffff166323b872dd8284876040518463ffffffff1660e01b81526004016122fe93929190613214565b600060405180830381600087803b15801561231857600080fd5b505af115801561232c573d6000803e3d6000fd5b505050506123f9565b61236781612362600a612354600c600f5461205d90919063ffffffff16565b61275390919063ffffffff16565b6126d8565b600660009054906101000a900473ffffffffffffffffffffffffffffffffffffffff1673ffffffffffffffffffffffffffffffffffffffff166323b872dd8383876040518463ffffffff1660e01b81526004016123c693929190613214565b600060405180830381600087803b1580156123e057600080fd5b505af11580156123f4573d6000803e3d6000fd5b505050505b61244d600d60009054906101000a900473ffffffffffffffffffffffffffffffffffffffff16612448600a61243a6002600f5461205d90919063ffffffff16565b61275390919063ffffffff16565b6126d8565b612476600a6124686006600f5461205d90919063ffffffff16565b61275390919063ffffffff16565b600e60008282546124879190612cc5565b925050819055505b50505050565b505050565b505050565b600073ffffffffffffffffffffffffffffffffffffffff168273ffffffffffffffffffffffffffffffffffffffff160361250e576040517f08c379a0000000000000000000000000000000000000000000000000000000008152600401612505906137af565b60405180910390fd5b61251a60008383612495565b806002600082825461252c9190612cc5565b92505081905550806000808473ffffffffffffffffffffffffffffffffffffffff1673ffffffffffffffffffffffffffffffffffffffff168152602001908152602001600020600082825401925050819055508173ffffffffffffffffffffffffffffffffffffffff16600073ffffffffffffffffffffffffffffffffffffffff167fddf252ad1be2c89b69c2b068fc378daa952ba7f163c4a11628f55a4df523b3ef836040516125dd9190612883565b60405180910390a36125f16000838361249a565b5050565b600381036126665761262f8361262a601461261c6005600e5461205d90919063ffffffff16565b61275390919063ffffffff16565b6126d8565b6126618261265c601461264e6005600e5461205d90919063ffffffff16565b61275390919063ffffffff16565b6126d8565b6126cb565b61269883612693600a6126856004600e5461205d90919063ffffffff16565b61275390919063ffffffff16565b6126d8565b6126ca826126c5600a6126b76001600e5461205d90919063ffffffff16565b61275390919063ffffffff16565b6126d8565b5b6126d3612769565b505050565b60008273ffffffffffffffffffffffffffffffffffffffff16826040516126fe90613800565b60006040518083038185875af1925050503d806000811461273b576040519150601f19603f3d011682016040523d82523d6000602084013e612740565b606091505b505090508061274e57600080fd5b505050565b600081836127619190613815565b905092915050565b60005b6011805490508110156128675760006011828154811061278f5761278e612d8b565b5b9060005260206000200160009054906101000a900473ffffffffffffffffffffffffffffffffffffffff1690506128538161284e601054612840601460008773ffffffffffffffffffffffffffffffffffffffff1673ffffffffffffffffffffffffffffffffffffffff16815260200190815260200160002054612832600a6128246004600e5461205d90919063ffffffff16565b61275390919063ffffffff16565b61205d90919063ffffffff16565b61275390919063ffffffff16565b6126d8565b50808061285f90612dee565b91505061276c565b50565b6000819050919050565b61287d8161286a565b82525050565b60006020820190506128986000830184612874565b92915050565b600081519050919050565b600082825260208201905092915050565b60005b838110156128d85780820151818401526020810190506128bd565b60008484015250505050565b6000601f19601f8301169050919050565b60006129008261289e565b61290a81856128a9565b935061291a8185602086016128ba565b612923816128e4565b840191505092915050565b6000602082019050818103600083015261294881846128f5565b905092915050565b600080fd5b600073ffffffffffffffffffffffffffffffffffffffff82169050919050565b600061298082612955565b9050919050565b61299081612975565b811461299b57600080fd5b50565b6000813590506129ad81612987565b92915050565b6129bc8161286a565b81146129c757600080fd5b50565b6000813590506129d9816129b3565b92915050565b600080604083850312156129f6576129f5612950565b5b6000612a048582860161299e565b9250506020612a15858286016129ca565b9150509250929050565b60008115159050919050565b612a3481612a1f565b82525050565b6000602082019050612a4f6000830184612a2b565b92915050565b600060208284031215612a6b57612a6a612950565b5b6000612a798482850161299e565b91505092915050565b612a8b81612975565b82525050565b6000602082019050612aa66000830184612a82565b92915050565b600080600060608486031215612ac557612ac4612950565b5b6000612ad38682870161299e565b9350506020612ae48682870161299e565b9250506040612af5868287016129ca565b9150509250925092565b600060208284031215612b1557612b14612950565b5b6000612b23848285016129ca565b91505092915050565b600060ff82169050919050565b612b4281612b2c565b82525050565b6000602082019050612b5d6000830184612b39565b92915050565b60008060408385031215612b7a57612b79612950565b5b6000612b88858286016129ca565b9250506020612b99858286016129ca565b9150509250929050565b60008060408385031215612bba57612bb9612950565b5b6000612bc88582860161299e565b9250506020612bd98582860161299e565b9150509250929050565b600060a082019050612bf86000830188612874565b612c056020830187612874565b612c126040830186612874565b612c1f6060830185612874565b612c2c6080830184612a2b565b9695505050505050565b7f4e487b7100000000000000000000000000000000000000000000000000000000600052602260045260246000fd5b60006002820490506001821680612c7d57607f821691505b602082108103612c9057612c8f612c36565b5b50919050565b7f4e487b7100000000000000000000000000000000000000000000000000000000600052601160045260246000fd5b6000612cd08261286a565b9150612cdb8361286a565b9250828201905080821115612cf357612cf2612c96565b5b92915050565b7f54727920746f20756e7374616b65206d6f7265207468616e207374616b65642060008201527f616d6f756e740000000000000000000000000000000000000000000000000000602082015250565b6000612d556026836128a9565b9150612d6082612cf9565b604082019050919050565b60006020820190508181036000830152612d8481612d48565b9050919050565b7f4e487b7100000000000000000000000000000000000000000000000000000000600052603260045260246000fd5b6000612dc58261286a565b9150612dd08361286a565b9250828203905081811115612de857612de7612c96565b5b92915050565b6000612df98261286a565b91507fffffffffffffffffffffffffffffffffffffffffffffffffffffffffffffffff8203612e2b57612e2a612c96565b5b600182019050919050565b7f4e487b7100000000000000000000000000000000000000000000000000000000600052603160045260246000fd5b7f414c454144595f494e5f4c4f4242590000000000000000000000000000000000600082015250565b6000612e9b600f836128a9565b9150612ea682612e65565b602082019050919050565b60006020820190508181036000830152612eca81612e8e565b9050919050565b600081519050612ee081612987565b92915050565b600060208284031215612efc57612efb612950565b5b6000612f0a84828501612ed1565b91505092915050565b7f4e4f545f4f574e45520000000000000000000000000000000000000000000000600082015250565b6000612f496009836128a9565b9150612f5482612f13565b602082019050919050565b60006020820190508181036000830152612f7881612f3c565b9050919050565b7f416d6f756e7420646f65736e277420657175616c206d73672e76616c75650000600082015250565b6000612fb5601e836128a9565b9150612fc082612f7f565b602082019050919050565b60006020820190508181036000830152612fe481612fa8565b9050919050565b60008160601b9050919050565b600061300382612feb565b9050919050565b600061301582612ff8565b9050919050565b61302d61302882612975565b61300a565b82525050565b6000819050919050565b61304e6130498261286a565b613033565b82525050565b6000819050919050565b6000819050919050565b61307961307482613054565b61305e565b82525050565b600061308b828761301c565b60148201915061309b828661303d565b6020820191506130ab828561303d565b6020820191506130bb8284613068565b60208201915081905095945050505050565b7f4e487b7100000000000000000000000000000000000000000000000000000000600052601260045260246000fd5b60006131078261286a565b91506131128361286a565b925082613122576131216130cd565b5b828206905092915050565b6000819050919050565b60006131428261312d565b91507f7fffffffffffffffffffffffffffffffffffffffffffffffffffffffffffffff820361317457613173612c96565b5b600182019050919050565b60006040820190506131946000830185612874565b6131a16020830184612874565b9392505050565b7f4e4f545f494e5f4c4f4242590000000000000000000000000000000000000000600082015250565b60006131de600c836128a9565b91506131e9826131a8565b602082019050919050565b6000602082019050818103600083015261320d816131d1565b9050919050565b60006060820190506132296000830186612a82565b6132366020830185612a82565b6132436040830184612874565b949350505050565b7f45524332303a2064656372656173656420616c6c6f77616e63652062656c6f7760008201527f207a65726f000000000000000000000000000000000000000000000000000000602082015250565b60006132a76025836128a9565b91506132b28261324b565b604082019050919050565b600060208201905081810360008301526132d68161329a565b9050919050565b7f4f776e61626c653a206e6577206f776e657220697320746865207a65726f206160008201527f6464726573730000000000000000000000000000000000000000000000000000602082015250565b60006133396026836128a9565b9150613344826132dd565b604082019050919050565b600060208201905081810360008301526133688161332c565b9050919050565b7f45524332303a20617070726f76652066726f6d20746865207a65726f2061646460008201527f7265737300000000000000000000000000000000000000000000000000000000602082015250565b60006133cb6024836128a9565b91506133d68261336f565b604082019050919050565b600060208201905081810360008301526133fa816133be565b9050919050565b7f45524332303a20617070726f766520746f20746865207a65726f20616464726560008201527f7373000000000000000000000000000000000000000000000000000000000000602082015250565b600061345d6022836128a9565b915061346882613401565b604082019050919050565b6000602082019050818103600083015261348c81613450565b9050919050565b7f4f776e61626c653a2063616c6c6572206973206e6f7420746865206f776e6572600082015250565b60006134c96020836128a9565b91506134d482613493565b602082019050919050565b600060208201905081810360008301526134f8816134bc565b9050919050565b7f45524332303a20696e73756666696369656e7420616c6c6f77616e6365000000600082015250565b6000613535601d836128a9565b9150613540826134ff565b602082019050919050565b6000602082019050818103600083015261356481613528565b9050919050565b7f45524332303a207472616e736665722066726f6d20746865207a65726f20616460008201527f6472657373000000000000000000000000000000000000000000000000000000602082015250565b60006135c76025836128a9565b91506135d28261356b565b604082019050919050565b600060208201905081810360008301526135f6816135ba565b9050919050565b7f45524332303a207472616e7366657220746f20746865207a65726f206164647260008201527f6573730000000000000000000000000000000000000000000000000000000000602082015250565b60006136596023836128a9565b9150613664826135fd565b604082019050919050565b600060208201905081810360008301526136888161364c565b9050919050565b7f45524332303a207472616e7366657220616d6f756e742065786365656473206260008201527f616c616e63650000000000000000000000000000000000000000000000000000602082015250565b60006136eb6026836128a9565b91506136f68261368f565b604082019050919050565b6000602082019050818103600083015261371a816136de565b9050919050565b600061372c8261286a565b91506137378361286a565b92508282026137458161286a565b9150828204841483151761375c5761375b612c96565b5b5092915050565b7f45524332303a206d696e7420746f20746865207a65726f206164647265737300600082015250565b6000613799601f836128a9565b91506137a482613763565b602082019050919050565b600060208201905081810360008301526137c88161378c565b9050919050565b600081905092915050565b50565b60006137ea6000836137cf565b91506137f5826137da565b600082019050919050565b600061380b826137dd565b9150819050919050565b60006138208261286a565b915061382b8361286a565b92508261383b5761383a6130cd565b5b82820490509291505056fea26469706673582212207f93c0e75f6b61b157051aa10fd571a72c67fbd9f94c015eac85835fc6b8538164736f6c63430008110033",
  "linkReferences": {},
  "deployedLinkReferences": {}
}