{
  "_format": "hh-sol-artifact-1",
  "contractName": "Meow",
  "sourceName": "contracts/MEOW.sol",
  "abi": [
    {
      "inputs": [
        {
          "internalType": "address",
          "name": "_nftAddress",
          "type": "address"
        },
        {
          "internalType": "address",
          "name": "_teamAddress",
          "type": "address"
        }
      ],
      "stateMutability": "nonpayable",
      "type": "constructor"
    },
    {
      "anonymous": false,
      "inputs": [
        {
          "indexed": true,
          "internalType": "address",
          "name": "owner",
          "type": "address"
        },
        {
          "indexed": true,
          "internalType": "address",
          "name": "spender",
          "type": "address"
        },
        {
          "indexed": false,
          "internalType": "uint256",
          "name": "value",
          "type": "uint256"
        }
      ],
      "name": "Approval",
      "type": "event"
    },
    {
      "anonymous": false,
      "inputs": [
        {
          "indexed": false,
          "internalType": "uint256",
          "name": "tokenId1",
          "type": "uint256"
        },
        {
          "indexed": false,
          "internalType": "uint256",
          "name": "tokenId2",
          "type": "uint256"
        }
      ],
      "name": "GameStarted",
      "type": "event"
    },
    {
      "anonymous": false,
      "inputs": [
        {
          "indexed": true,
          "internalType": "address",
          "name": "previousOwner",
          "type": "address"
        },
        {
          "indexed": true,
          "internalType": "address",
          "name": "newOwner",
          "type": "address"
        }
      ],
      "name": "OwnershipTransferred",
      "type": "event"
    },
    {
      "anonymous": false,
      "inputs": [
        {
          "indexed": true,
          "internalType": "address",
          "name": "from",
          "type": "address"
        },
        {
          "indexed": true,
          "internalType": "address",
          "name": "to",
          "type": "address"
        },
        {
          "indexed": false,
          "internalType": "uint256",
          "name": "value",
          "type": "uint256"
        }
      ],
      "name": "Transfer",
      "type": "event"
    },
    {
      "inputs": [
        {
          "internalType": "address",
          "name": "owner",
          "type": "address"
        },
        {
          "internalType": "address",
          "name": "spender",
          "type": "address"
        }
      ],
      "name": "allowance",
      "outputs": [
        {
          "internalType": "uint256",
          "name": "",
          "type": "uint256"
        }
      ],
      "stateMutability": "view",
      "type": "function"
    },
    {
      "inputs": [
        {
          "internalType": "address",
          "name": "spender",
          "type": "address"
        },
        {
          "internalType": "uint256",
          "name": "amount",
          "type": "uint256"
        }
      ],
      "name": "approve",
      "outputs": [
        {
          "internalType": "bool",
          "name": "",
          "type": "bool"
        }
      ],
      "stateMutability": "nonpayable",
      "type": "function"
    },
    {
      "inputs": [
        {
          "internalType": "address",
          "name": "account",
          "type": "address"
        }
      ],
      "name": "balanceOf",
      "outputs": [
        {
          "internalType": "uint256",
          "name": "",
          "type": "uint256"
        }
      ],
      "stateMutability": "view",
      "type": "function"
    },
    {
      "inputs": [],
      "name": "big",
      "outputs": [
        {
          "internalType": "bool",
          "name": "",
          "type": "bool"
        }
      ],
      "stateMutability": "view",
      "type": "function"
    },
    {
      "inputs": [],
      "name": "decimals",
      "outputs": [
        {
          "internalType": "uint8",
          "name": "",
          "type": "uint8"
        }
      ],
      "stateMutability": "view",
      "type": "function"
    },
    {
      "inputs": [
        {
          "internalType": "address",
          "name": "spender",
          "type": "address"
        },
        {
          "internalType": "uint256",
          "name": "subtractedValue",
          "type": "uint256"
        }
      ],
      "name": "decreaseAllowance",
      "outputs": [
        {
          "internalType": "bool",
          "name": "",
          "type": "bool"
        }
      ],
      "stateMutability": "nonpayable",
      "type": "function"
    },
    {
      "inputs": [],
      "name": "firstrandom",
      "outputs": [
        {
          "internalType": "uint256",
          "name": "",
          "type": "uint256"
        }
      ],
      "stateMutability": "view",
      "type": "function"
    },
    {
      "inputs": [],
      "name": "gamePrice",
      "outputs": [
        {
          "internalType": "uint256",
          "name": "",
          "type": "uint256"
        }
      ],
      "stateMutability": "view",
      "type": "function"
    },
    {
      "inputs": [
        {
          "internalType": "address",
          "name": "spender",
          "type": "address"
        },
        {
          "internalType": "uint256",
          "name": "addedValue",
          "type": "uint256"
        }
      ],
      "name": "increaseAllowance",
      "outputs": [
        {
          "internalType": "bool",
          "name": "",
          "type": "bool"
        }
      ],
      "stateMutability": "nonpayable",
      "type": "function"
    },
    {
      "inputs": [],
      "name": "iterations",
      "outputs": [
        {
          "internalType": "uint256",
          "name": "",
          "type": "uint256"
        }
      ],
      "stateMutability": "view",
      "type": "function"
    },
    {
      "inputs": [],
      "name": "jackpotAmount",
      "outputs": [
        {
          "internalType": "uint256",
          "name": "",
          "type": "uint256"
        }
      ],
      "stateMutability": "view",
      "type": "function"
    },
    {
      "inputs": [
        {
          "internalType": "uint256",
          "name": "tokenId",
          "type": "uint256"
        },
        {
          "internalType": "uint256",
          "name": "roomnum",
          "type": "uint256"
        }
      ],
      "name": "joinBigLobby",
      "outputs": [],
      "stateMutability": "payable",
      "type": "function"
    },
    {
      "inputs": [
        {
          "internalType": "uint256",
          "name": "tokenId",
          "type": "uint256"
        }
      ],
      "name": "leaveLobby",
      "outputs": [],
      "stateMutability": "nonpayable",
      "type": "function"
    },
    {
      "inputs": [],
      "name": "name",
      "outputs": [
        {
          "internalType": "string",
          "name": "",
          "type": "string"
        }
      ],
      "stateMutability": "view",
      "type": "function"
    },
    {
      "inputs": [],
      "name": "owner",
      "outputs": [
        {
          "internalType": "address",
          "name": "",
          "type": "address"
        }
      ],
      "stateMutability": "view",
      "type": "function"
    },
    {
      "inputs": [],
      "name": "prime",
      "outputs": [
        {
          "internalType": "uint256",
          "name": "",
          "type": "uint256"
        }
      ],
      "stateMutability": "view",
      "type": "function"
    },
    {
      "inputs": [],
      "name": "renounceOwnership",
      "outputs": [],
      "stateMutability": "nonpayable",
      "type": "function"
    },
    {
      "inputs": [
        {
          "internalType": "uint256",
          "name": "",
          "type": "uint256"
        }
      ],
      "name": "room",
      "outputs": [
        {
          "internalType": "uint256",
          "name": "random1",
          "type": "uint256"
        },
        {
          "internalType": "uint256",
          "name": "random2",
          "type": "uint256"
        },
        {
          "internalType": "uint256",
          "name": "tokenid1",
          "type": "uint256"
        },
        {
          "internalType": "uint256",
          "name": "tokenid2",
          "type": "uint256"
        },
        {
          "internalType": "bool",
          "name": "big",
          "type": "bool"
        }
      ],
      "stateMutability": "view",
      "type": "function"
    },
    {
      "inputs": [],
      "name": "secondrandom",
      "outputs": [
        {
          "internalType": "uint256",
          "name": "",
          "type": "uint256"
        }
      ],
      "stateMutability": "view",
      "type": "function"
    },
    {
      "inputs": [
        {
          "internalType": "address",
          "name": "",
          "type": "address"
        }
      ],
      "name": "seeds",
      "outputs": [
        {
          "internalType": "uint256",
          "name": "",
          "type": "uint256"
        }
      ],
      "stateMutability": "view",
      "type": "function"
    },
    {
      "inputs": [
        {
          "internalType": "uint256",
          "name": "newGamePrice",
          "type": "uint256"
        }
      ],
      "name": "setGamePrice",
      "outputs": [],
      "stateMutability": "nonpayable",
      "type": "function"
    },
    {
      "inputs": [
        {
          "internalType": "address",
          "name": "newNftAddress",
          "type": "address"
        }
      ],
      "name": "setNftAddress",
      "outputs": [],
      "stateMutability": "nonpayable",
      "type": "function"
    },
    {
      "inputs": [
        {
          "internalType": "address",
          "name": "newTeamAddress",
          "type": "address"
        }
      ],
      "name": "setTeamAddress",
      "outputs": [],
      "stateMutability": "nonpayable",
      "type": "function"
    },
    {
      "inputs": [
        {
          "internalType": "uint256",
          "name": "amount",
          "type": "uint256"
        }
      ],
      "name": "stake",
      "outputs": [],
      "stateMutability": "nonpayable",
      "type": "function"
    },
    {
      "inputs": [
        {
          "internalType": "address",
          "name": "",
          "type": "address"
        }
      ],
      "name": "stakeAmount",
      "outputs": [
        {
          "internalType": "uint256",
          "name": "",
          "type": "uint256"
        }
      ],
      "stateMutability": "view",
      "type": "function"
    },
    {
      "inputs": [],
      "name": "stakeTotal",
      "outputs": [
        {
          "internalType": "uint256",
          "name": "",
          "type": "uint256"
        }
      ],
      "stateMutability": "view",
      "type": "function"
    },
    {
      "inputs": [],
      "name": "symbol",
      "outputs": [
        {
          "internalType": "string",
          "name": "",
          "type": "string"
        }
      ],
      "stateMutability": "view",
      "type": "function"
    },
    {
      "inputs": [],
      "name": "teamAddress",
      "outputs": [
        {
          "internalType": "address",
          "name": "",
          "type": "address"
        }
      ],
      "stateMutability": "view",
      "type": "function"
    },
    {
      "inputs": [],
      "name": "tmpgamePrice",
      "outputs": [
        {
          "internalType": "uint256",
          "name": "",
          "type": "uint256"
        }
      ],
      "stateMutability": "view",
      "type": "function"
    },
    {
      "inputs": [],
      "name": "totalSupply",
      "outputs": [
        {
          "internalType": "uint256",
          "name": "",
          "type": "uint256"
        }
      ],
      "stateMutability": "view",
      "type": "function"
    },
    {
      "inputs": [
        {
          "internalType": "address",
          "name": "to",
          "type": "address"
        },
        {
          "internalType": "uint256",
          "name": "amount",
          "type": "uint256"
        }
      ],
      "name": "transfer",
      "outputs": [
        {
          "internalType": "bool",
          "name": "",
          "type": "bool"
        }
      ],
      "stateMutability": "nonpayable",
      "type": "function"
    },
    {
      "inputs": [
        {
          "internalType": "address",
          "name": "from",
          "type": "address"
        },
        {
          "internalType": "address",
          "name": "to",
          "type": "address"
        },
        {
          "internalType": "uint256",
          "name": "amount",
          "type": "uint256"
        }
      ],
      "name": "transferFrom",
      "outputs": [
        {
          "internalType": "bool",
          "name": "",
          "type": "bool"
        }
      ],
      "stateMutability": "nonpayable",
      "type": "function"
    },
    {
      "inputs": [
        {
          "internalType": "address",
          "name": "newOwner",
          "type": "address"
        }
      ],
      "name": "transferOwnership",
      "outputs": [],
      "stateMutability": "nonpayable",
      "type": "function"
    },
    {
      "inputs": [
        {
          "internalType": "uint256",
          "name": "amount",
          "type": "uint256"
        }
      ],
      "name": "unStake",
      "outputs": [],
      "stateMutability": "nonpayable",
      "type": "function"
    },
    {
      "inputs": [],
      "name": "waitingId",
      "outputs": [
        {
          "internalType": "uint256",
          "name": "",
          "type": "uint256"
        }
      ],
      "stateMutability": "view",
      "type": "function"
    }
  ],
  "bytecode": "0x6080604052600a60085560006009556000600a556000600b556000600e557104f627b3bbd341d240517fe3db99ad3b2c276014556103e86015553480156200004657600080fd5b5060405162003ee638038062003ee683398181016040528101906200006c919062000314565b6040518060400160405280600481526020017f4d656f77000000000000000000000000000000000000000000000000000000008152506040518060400160405280600481526020017f4d656f77000000000000000000000000000000000000000000000000000000008152508160039081620000e99190620005d5565b508060049081620000fb9190620005d5565b5050506200011e62000112620001dc60201b60201c565b620001e460201b60201c565b81600660006101000a81548173ffffffffffffffffffffffffffffffffffffffff021916908373ffffffffffffffffffffffffffffffffffffffff16021790555080600d60006101000a81548173ffffffffffffffffffffffffffffffffffffffff021916908373ffffffffffffffffffffffffffffffffffffffff1602179055504244604051602001620001b5929190620006e1565b6040516020818303038152906040528051906020012060001c600781905550505062000711565b600033905090565b6000600560009054906101000a900473ffffffffffffffffffffffffffffffffffffffff16905081600560006101000a81548173ffffffffffffffffffffffffffffffffffffffff021916908373ffffffffffffffffffffffffffffffffffffffff1602179055508173ffffffffffffffffffffffffffffffffffffffff168173ffffffffffffffffffffffffffffffffffffffff167f8be0079c531659141344cd1fd0a4f28419497f9722a3daafe3b4186f6b6457e060405160405180910390a35050565b600080fd5b600073ffffffffffffffffffffffffffffffffffffffff82169050919050565b6000620002dc82620002af565b9050919050565b620002ee81620002cf565b8114620002fa57600080fd5b50565b6000815190506200030e81620002e3565b92915050565b600080604083850312156200032e576200032d620002aa565b5b60006200033e85828601620002fd565b92505060206200035185828601620002fd565b9150509250929050565b600081519050919050565b7f4e487b7100000000000000000000000000000000000000000000000000000000600052604160045260246000fd5b7f4e487b7100000000000000000000000000000000000000000000000000000000600052602260045260246000fd5b60006002820490506001821680620003dd57607f821691505b602082108103620003f357620003f262000395565b5b50919050565b60008190508160005260206000209050919050565b60006020601f8301049050919050565b600082821b905092915050565b6000600883026200045d7fffffffffffffffffffffffffffffffffffffffffffffffffffffffffffffffff826200041e565b6200046986836200041e565b95508019841693508086168417925050509392505050565b6000819050919050565b6000819050919050565b6000620004b6620004b0620004aa8462000481565b6200048b565b62000481565b9050919050565b6000819050919050565b620004d28362000495565b620004ea620004e182620004bd565b8484546200042b565b825550505050565b600090565b62000501620004f2565b6200050e818484620004c7565b505050565b5b8181101562000536576200052a600082620004f7565b60018101905062000514565b5050565b601f82111562000585576200054f81620003f9565b6200055a846200040e565b810160208510156200056a578190505b6200058262000579856200040e565b83018262000513565b50505b505050565b600082821c905092915050565b6000620005aa600019846008026200058a565b1980831691505092915050565b6000620005c5838362000597565b9150826002028217905092915050565b620005e0826200035b565b67ffffffffffffffff811115620005fc57620005fb62000366565b5b620006088254620003c4565b620006158282856200053a565b600060209050601f8311600181146200064d576000841562000638578287015190505b620006448582620005b7565b865550620006b4565b601f1984166200065d86620003f9565b60005b82811015620006875784890151825560018201915060208501945060208101905062000660565b86831015620006a75784890151620006a3601f89168262000597565b8355505b6001600288020188555050505b505050505050565b6000819050919050565b620006db620006d58262000481565b620006bc565b82525050565b6000620006ef8285620006c6565b602082019150620007018284620006c6565b6020820191508190509392505050565b6137c580620007216000396000f3fe6080604052600436106102045760003560e01c8063887b13a311610118578063a457c2d7116100a0578063bf1352671161006f578063bf13526714610762578063c7ee005e1461079f578063dd62ed3e146107ca578063f2fde38b14610807578063f8663e231461083057610204565b8063a457c2d714610694578063a694fc3a146106d1578063a9059cbb146106fa578063b1eac37e1461073757610204565b80638f7c4e5e116100e75780638f7c4e5e146105bf57806391b090f6146105ea578063948428f01461061557806395d89b411461063e57806396bf15bf1461066957610204565b8063887b13a3146105225780638c680c0f1461054d5780638da5cb5b146105785780638dd9254a146105a357610204565b8063313ce5671161019b5780634b5c8bdf1161016a5780634b5c8bdf146104515780635d3eea911461047c5780636690864e146104a557806370a08231146104ce578063715018a61461050b57610204565b8063313ce5671461038157806339509351146103ac5780634358d2be146103e957806348d0528a1461041457610204565b806318160ddd116101d757806318160ddd146102c55780631c75f085146102f057806323b872dd1461031b57806326126d461461035857610204565b8063035545241461020957806306fdde0314610234578063095ea7b31461025f5780630b102d1a1461029c575b600080fd5b34801561021557600080fd5b5061021e610871565b60405161022b91906127cc565b60405180910390f35b34801561024057600080fd5b50610249610877565b6040516102569190612877565b60405180910390f35b34801561026b57600080fd5b5061028660048036038101906102819190612928565b610909565b6040516102939190612983565b60405180910390f35b3480156102a857600080fd5b506102c360048036038101906102be919061299e565b61092c565b005b3480156102d157600080fd5b506102da610978565b6040516102e791906127cc565b60405180910390f35b3480156102fc57600080fd5b50610305610982565b60405161031291906129da565b60405180910390f35b34801561032757600080fd5b50610342600480360381019061033d91906129f5565b6109a8565b60405161034f9190612983565b60405180910390f35b34801561036457600080fd5b5061037f600480360381019061037a9190612a48565b6109d7565b005b34801561038d57600080fd5b506103966109e9565b6040516103a39190612a91565b60405180910390f35b3480156103b857600080fd5b506103d360048036038101906103ce9190612928565b6109f2565b6040516103e09190612983565b60405180910390f35b3480156103f557600080fd5b506103fe610a29565b60405161040b91906127cc565b60405180910390f35b34801561042057600080fd5b5061043b6004803603810190610436919061299e565b610a2f565b60405161044891906127cc565b60405180910390f35b34801561045d57600080fd5b50610466610a47565b60405161047391906127cc565b60405180910390f35b34801561048857600080fd5b506104a3600480360381019061049e9190612a48565b610a4d565b005b3480156104b157600080fd5b506104cc60048036038101906104c7919061299e565b610d1f565b005b3480156104da57600080fd5b506104f560048036038101906104f0919061299e565b610d6b565b60405161050291906127cc565b60405180910390f35b34801561051757600080fd5b50610520610db3565b005b34801561052e57600080fd5b50610537610dc7565b6040516105449190612983565b60405180910390f35b34801561055957600080fd5b50610562610dda565b60405161056f91906127cc565b60405180910390f35b34801561058457600080fd5b5061058d610de0565b60405161059a91906129da565b60405180910390f35b6105bd60048036038101906105b89190612aac565b610e0a565b005b3480156105cb57600080fd5b506105d4611494565b6040516105e191906127cc565b60405180910390f35b3480156105f657600080fd5b506105ff61149a565b60405161060c91906127cc565b60405180910390f35b34801561062157600080fd5b5061063c60048036038101906106379190612a48565b6114a0565b005b34801561064a57600080fd5b506106536115ff565b6040516106609190612877565b60405180910390f35b34801561067557600080fd5b5061067e611691565b60405161068b91906127cc565b60405180910390f35b3480156106a057600080fd5b506106bb60048036038101906106b69190612928565b611697565b6040516106c89190612983565b60405180910390f35b3480156106dd57600080fd5b506106f860048036038101906106f39190612a48565b61170e565b005b34801561070657600080fd5b50610721600480360381019061071c9190612928565b611837565b60405161072e9190612983565b60405180910390f35b34801561074357600080fd5b5061074c61185a565b60405161075991906127cc565b60405180910390f35b34801561076e57600080fd5b506107896004803603810190610784919061299e565b611860565b60405161079691906127cc565b60405180910390f35b3480156107ab57600080fd5b506107b4611878565b6040516107c191906127cc565b60405180910390f35b3480156107d657600080fd5b506107f160048036038101906107ec9190612aec565b61187e565b6040516107fe91906127cc565b60405180910390f35b34801561081357600080fd5b5061082e6004803603810190610829919061299e565b611905565b005b34801561083c57600080fd5b5061085760048036038101906108529190612a48565b611988565b604051610868959493929190612b2c565b60405180910390f35b600a5481565b60606003805461088690612bae565b80601f01602080910402602001604051908101604052809291908181526020018280546108b290612bae565b80156108ff5780601f106108d4576101008083540402835291602001916108ff565b820191906000526020600020905b8154815290600101906020018083116108e257829003601f168201915b5050505050905090565b6000806109146119cb565b90506109218185856119d3565b600191505092915050565b610934611b9c565b80600660006101000a81548173ffffffffffffffffffffffffffffffffffffffff021916908373ffffffffffffffffffffffffffffffffffffffff16021790555050565b6000600254905090565b600d60009054906101000a900473ffffffffffffffffffffffffffffffffffffffff1681565b6000806109b36119cb565b90506109c0858285611c1a565b6109cb858585611ca6565b60019150509392505050565b6109df611b9c565b8060088190555050565b60006001905090565b6000806109fd6119cb565b9050610a1e818585610a0f858961187e565b610a199190612c0e565b6119d3565b600191505092915050565b60155481565b60176020528060005260406000206000915090505481565b60185481565b601360003373ffffffffffffffffffffffffffffffffffffffff1673ffffffffffffffffffffffffffffffffffffffff168152602001908152602001600020548110610ace576040517f08c379a0000000000000000000000000000000000000000000000000000000008152600401610ac590612cb4565b60405180910390fd5b610ad83382611837565b5080601360003373ffffffffffffffffffffffffffffffffffffffff1673ffffffffffffffffffffffffffffffffffffffff1681526020019081526020016000205403610cad5760005b601080549050811015610c64573373ffffffffffffffffffffffffffffffffffffffff1660108281548110610b5a57610b59612cd4565b5b9060005260206000200160009054906101000a900473ffffffffffffffffffffffffffffffffffffffff1673ffffffffffffffffffffffffffffffffffffffff1603610c515760106001601080549050610bb49190612d03565b81548110610bc557610bc4612cd4565b5b9060005260206000200160009054906101000a900473ffffffffffffffffffffffffffffffffffffffff1660108281548110610c0457610c03612cd4565b5b9060005260206000200160006101000a81548173ffffffffffffffffffffffffffffffffffffffff021916908373ffffffffffffffffffffffffffffffffffffffff160217905550610c64565b8080610c5c90612d37565b915050610b22565b506010805480610c7757610c76612d7f565b5b6001900381819060005260206000200160006101000a81549073ffffffffffffffffffffffffffffffffffffffff021916905590555b80601360003373ffffffffffffffffffffffffffffffffffffffff1673ffffffffffffffffffffffffffffffffffffffff1681526020019081526020016000206000828254610cfc9190612d03565b925050819055508060186000828254610d159190612d03565b9250508190555050565b610d27611b9c565b80600d60006101000a81548173ffffffffffffffffffffffffffffffffffffffff021916908373ffffffffffffffffffffffffffffffffffffffff16021790555050565b60008060008373ffffffffffffffffffffffffffffffffffffffff1673ffffffffffffffffffffffffffffffffffffffff168152602001908152602001600020549050919050565b610dbb611b9c565b610dc56000611f1c565b565b601160009054906101000a900460ff1681565b60095481565b6000600560009054906101000a900473ffffffffffffffffffffffffffffffffffffffff16905090565b8160095403610e4e576040517f08c379a0000000000000000000000000000000000000000000000000000000008152600401610e4590612dfa565b60405180910390fd5b610e566119cb565b73ffffffffffffffffffffffffffffffffffffffff16600660009054906101000a900473ffffffffffffffffffffffffffffffffffffffff1673ffffffffffffffffffffffffffffffffffffffff16636352211e846040518263ffffffff1660e01b8152600401610ec791906127cc565b602060405180830381865afa158015610ee4573d6000803e3d6000fd5b505050506040513d601f19601f82011682018060405250810190610f089190612e2f565b73ffffffffffffffffffffffffffffffffffffffff1614610f5e576040517f08c379a0000000000000000000000000000000000000000000000000000000008152600401610f5590612ea8565b60405180910390fd5b346008541480610f82575034610f806005600854611fe290919063ffffffff16565b145b610fc1576040517f08c379a0000000000000000000000000000000000000000000000000000000008152600401610fb890612f14565b60405180910390fd5b6001601160006101000a81548160ff021916908315150217905550600060095403611239578160126000838152602001908152602001600020600301819055508160098190555061101e6005600854611fe290919063ffffffff16565b34036110ef576000601160006101000a81548160ff02191690831515021790555060005b60058112156110e95760006001620186a0336016600081548092919061106790612d37565b91905055426001436110799190612d03565b4060405160200161108d9493929190612fc8565b6040516020818303038152906040528051906020012060001c6110b09190613045565b6110ba9190612c0e565b905080600a54116110cb57806110cf565b600a545b600a819055505080806110e190613080565b915050611042565b50611163565b6001620186a0336016600081548092919061110990612d37565b919050554260014361111b9190612d03565b4060405160200161112f9493929190612fc8565b6040516020818303038152906040528051906020012060001c6111529190613045565b61115c9190612c0e565b600a819055505b601160009054906101000a900460ff166012600083815260200190815260200160002060050160006101000a81548160ff021916908315150217905550600a54601260008381526020019081526020016000206001018190555060126000828152602001908152602001600020600001339080600181540180825580915050600190039060005260206000200160009091909190916101000a81548173ffffffffffffffffffffffffffffffffffffffff021916908373ffffffffffffffffffffffffffffffffffffffff160217905550611490565b81601260008381526020019081526020016000206004018190555061126a6005600854611fe290919063ffffffff16565b340361133b576000601160006101000a81548160ff02191690831515021790555060005b60058112156113355760006001620186a033601660008154809291906112b390612d37565b91905055426001436112c59190612d03565b406040516020016112d99493929190612fc8565b6040516020818303038152906040528051906020012060001c6112fc9190613045565b6113069190612c0e565b905080600b5411611317578061131b565b600b545b600b8190555050808061132d90613080565b91505061128e565b506113af565b6001620186a0336016600081548092919061135590612d37565b91905055426001436113679190612d03565b4060405160200161137b9493929190612fc8565b6040516020818303038152906040528051906020012060001c61139e9190613045565b6113a89190612c0e565b600b819055505b600b54601260008381526020019081526020016000206002018190555060126000828152602001908152602001600020600001339080600181540180825580915050600190039060005260206000200160009091909190916101000a81548173ffffffffffffffffffffffffffffffffffffffff021916908373ffffffffffffffffffffffffffffffffffffffff16021790555061144c82611ff8565b7fa2dfaa3573b86004ec9d4d4abe5068d942579c59da4da8cd0d9e45e71a393bc16009548360405161147f9291906130c8565b60405180910390a160006009819055505b5050565b600b5481565b600f5481565b6114a86119cb565b73ffffffffffffffffffffffffffffffffffffffff16600660009054906101000a900473ffffffffffffffffffffffffffffffffffffffff1673ffffffffffffffffffffffffffffffffffffffff16636352211e836040518263ffffffff1660e01b815260040161151991906127cc565b602060405180830381865afa158015611536573d6000803e3d6000fd5b505050506040513d601f19601f8201168201806040525081019061155a9190612e2f565b73ffffffffffffffffffffffffffffffffffffffff16146115b0576040517f08c379a00000000000000000000000000000000000000000000000000000000081526004016115a790612ea8565b60405180910390fd5b80600954146115f4576040517f08c379a00000000000000000000000000000000000000000000000000000000081526004016115eb9061313d565b60405180910390fd5b600060098190555050565b60606004805461160e90612bae565b80601f016020809104026020016040519081016040528092919081815260200182805461163a90612bae565b80156116875780601f1061165c57610100808354040283529160200191611687565b820191906000526020600020905b81548152906001019060200180831161166a57829003601f168201915b5050505050905090565b60085481565b6000806116a26119cb565b905060006116b0828661187e565b9050838110156116f5576040517f08c379a00000000000000000000000000000000000000000000000000000000081526004016116ec906131cf565b60405180910390fd5b61170282868684036119d3565b60019250505092915050565b6117193330836109a8565b506000601360003373ffffffffffffffffffffffffffffffffffffffff1673ffffffffffffffffffffffffffffffffffffffff16815260200190815260200160002054036117c5576010339080600181540180825580915050600190039060005260206000200160009091909190916101000a81548173ffffffffffffffffffffffffffffffffffffffff021916908373ffffffffffffffffffffffffffffffffffffffff1602179055505b80601360003373ffffffffffffffffffffffffffffffffffffffff1673ffffffffffffffffffffffffffffffffffffffff16815260200190815260200160002060008282546118149190612c0e565b92505081905550806018600082825461182d9190612c0e565b9250508190555050565b6000806118426119cb565b905061184f818585611ca6565b600191505092915050565b600e5481565b60136020528060005260406000206000915090505481565b60145481565b6000600160008473ffffffffffffffffffffffffffffffffffffffff1673ffffffffffffffffffffffffffffffffffffffff16815260200190815260200160002060008373ffffffffffffffffffffffffffffffffffffffff1673ffffffffffffffffffffffffffffffffffffffff16815260200190815260200160002054905092915050565b61190d611b9c565b600073ffffffffffffffffffffffffffffffffffffffff168173ffffffffffffffffffffffffffffffffffffffff160361197c576040517f08c379a000000000000000000000000000000000000000000000000000000000815260040161197390613261565b60405180910390fd5b61198581611f1c565b50565b60126020528060005260406000206000915090508060010154908060020154908060030154908060040154908060050160009054906101000a900460ff16905085565b600033905090565b600073ffffffffffffffffffffffffffffffffffffffff168373ffffffffffffffffffffffffffffffffffffffff1603611a42576040517f08c379a0000000000000000000000000000000000000000000000000000000008152600401611a39906132f3565b60405180910390fd5b600073ffffffffffffffffffffffffffffffffffffffff168273ffffffffffffffffffffffffffffffffffffffff1603611ab1576040517f08c379a0000000000000000000000000000000000000000000000000000000008152600401611aa890613385565b60405180910390fd5b80600160008573ffffffffffffffffffffffffffffffffffffffff1673ffffffffffffffffffffffffffffffffffffffff16815260200190815260200160002060008473ffffffffffffffffffffffffffffffffffffffff1673ffffffffffffffffffffffffffffffffffffffff168152602001908152602001600020819055508173ffffffffffffffffffffffffffffffffffffffff168373ffffffffffffffffffffffffffffffffffffffff167f8c5be1e5ebec7d5bd14f71427d1e84f3dd0314c0f7b2291e5b200ac8c7c3b92583604051611b8f91906127cc565b60405180910390a3505050565b611ba46119cb565b73ffffffffffffffffffffffffffffffffffffffff16611bc2610de0565b73ffffffffffffffffffffffffffffffffffffffff1614611c18576040517f08c379a0000000000000000000000000000000000000000000000000000000008152600401611c0f906133f1565b60405180910390fd5b565b6000611c26848461187e565b90507fffffffffffffffffffffffffffffffffffffffffffffffffffffffffffffffff8114611ca05781811015611c92576040517f08c379a0000000000000000000000000000000000000000000000000000000008152600401611c899061345d565b60405180910390fd5b611c9f84848484036119d3565b5b50505050565b600073ffffffffffffffffffffffffffffffffffffffff168373ffffffffffffffffffffffffffffffffffffffff1603611d15576040517f08c379a0000000000000000000000000000000000000000000000000000000008152600401611d0c906134ef565b60405180910390fd5b600073ffffffffffffffffffffffffffffffffffffffff168273ffffffffffffffffffffffffffffffffffffffff1603611d84576040517f08c379a0000000000000000000000000000000000000000000000000000000008152600401611d7b90613581565b60405180910390fd5b611d8f8383836123d4565b60008060008573ffffffffffffffffffffffffffffffffffffffff1673ffffffffffffffffffffffffffffffffffffffff16815260200190815260200160002054905081811015611e15576040517f08c379a0000000000000000000000000000000000000000000000000000000008152600401611e0c90613613565b60405180910390fd5b8181036000808673ffffffffffffffffffffffffffffffffffffffff1673ffffffffffffffffffffffffffffffffffffffff16815260200190815260200160002081905550816000808573ffffffffffffffffffffffffffffffffffffffff1673ffffffffffffffffffffffffffffffffffffffff168152602001908152602001600020600082825401925050819055508273ffffffffffffffffffffffffffffffffffffffff168473ffffffffffffffffffffffffffffffffffffffff167fddf252ad1be2c89b69c2b068fc378daa952ba7f163c4a11628f55a4df523b3ef84604051611f0391906127cc565b60405180910390a3611f168484846123d9565b50505050565b6000600560009054906101000a900473ffffffffffffffffffffffffffffffffffffffff16905081600560006101000a81548173ffffffffffffffffffffffffffffffffffffffff021916908373ffffffffffffffffffffffffffffffffffffffff1602179055508173ffffffffffffffffffffffffffffffffffffffff168173ffffffffffffffffffffffffffffffffffffffff167f8be0079c531659141344cd1fd0a4f28419497f9722a3daafe3b4186f6b6457e060405160405180910390a35050565b60008183611ff09190613633565b905092915050565b6000600b5490506000600660009054906101000a900473ffffffffffffffffffffffffffffffffffffffff1673ffffffffffffffffffffffffffffffffffffffff16636352211e6009546040518263ffffffff1660e01b815260040161205e91906127cc565b602060405180830381865afa15801561207b573d6000803e3d6000fd5b505050506040513d601f19601f8201168201806040525081019061209f9190612e2f565b90506000600660009054906101000a900473ffffffffffffffffffffffffffffffffffffffff1673ffffffffffffffffffffffffffffffffffffffff16636352211e856040518263ffffffff1660e01b81526004016120fe91906127cc565b602060405180830381865afa15801561211b573d6000803e3d6000fd5b505050506040513d601f19601f8201168201806040525081019061213f9190612e2f565b905061214c8260016123de565b6121578160016123de565b601160009054906101000a900460ff1661218c576121816005600854611fe290919063ffffffff16565b600f81905550612196565b600854600f819055505b82600c54036121bc576121ab82600f54612534565b6121b781600f54612534565b61239e565b82600c541115612268576121d282600f54612534565b600660009054906101000a900473ffffffffffffffffffffffffffffffffffffffff1673ffffffffffffffffffffffffffffffffffffffff166323b872dd8284876040518463ffffffff1660e01b815260040161223193929190613675565b600060405180830381600087803b15801561224b57600080fd5b505af115801561225f573d6000803e3d6000fd5b50505050612308565b61227481600f54612534565b600660009054906101000a900473ffffffffffffffffffffffffffffffffffffffff1673ffffffffffffffffffffffffffffffffffffffff166323b872dd83836009546040518463ffffffff1660e01b81526004016122d593929190613675565b600060405180830381600087803b1580156122ef57600080fd5b505af1158015612303573d6000803e3d6000fd5b505050505b61235c600d60009054906101000a900473ffffffffffffffffffffffffffffffffffffffff16612357600a6123496002600f54611fe290919063ffffffff16565b6125af90919063ffffffff16565b612534565b612385600a6123776008600f54611fe290919063ffffffff16565b6125af90919063ffffffff16565b600e60008282546123969190612c0e565b925050819055505b62012fd1600c54036123b6576123b58282856125c5565b5b62012fd183036123ce576123cd8183600c546125c5565b5b50505050565b505050565b505050565b600073ffffffffffffffffffffffffffffffffffffffff168273ffffffffffffffffffffffffffffffffffffffff160361244d576040517f08c379a0000000000000000000000000000000000000000000000000000000008152600401612444906136f8565b60405180910390fd5b612459600083836123d4565b806002600082825461246b9190612c0e565b92505081905550806000808473ffffffffffffffffffffffffffffffffffffffff1673ffffffffffffffffffffffffffffffffffffffff168152602001908152602001600020600082825401925050819055508173ffffffffffffffffffffffffffffffffffffffff16600073ffffffffffffffffffffffffffffffffffffffff167fddf252ad1be2c89b69c2b068fc378daa952ba7f163c4a11628f55a4df523b3ef8360405161251c91906127cc565b60405180910390a3612530600083836123d9565b5050565b60008273ffffffffffffffffffffffffffffffffffffffff168260405161255a90613749565b60006040518083038185875af1925050503d8060008114612597576040519150601f19603f3d011682016040523d82523d6000602084013e61259c565b606091505b50509050806125aa57600080fd5b505050565b600081836125bd919061375e565b905092915050565b62012fd1810361263857612601836125fc600a6125ee6003600e54611fe290919063ffffffff16565b6125af90919063ffffffff16565b612534565b6126338261262e600a6126206003600e54611fe290919063ffffffff16565b6125af90919063ffffffff16565b612534565b61269d565b61266a83612665600a6126576004600e54611fe290919063ffffffff16565b6125af90919063ffffffff16565b612534565b61269c82612697600a6126896001600e54611fe290919063ffffffff16565b6125af90919063ffffffff16565b612534565b5b6126a56126b2565b6000600e81905550505050565b60005b6010805490508110156127b0576000601082815481106126d8576126d7612cd4565b5b9060005260206000200160009054906101000a900473ffffffffffffffffffffffffffffffffffffffff16905061279c81612797601854612789601360008773ffffffffffffffffffffffffffffffffffffffff1673ffffffffffffffffffffffffffffffffffffffff1681526020019081526020016000205461277b600a61276d6004600e54611fe290919063ffffffff16565b6125af90919063ffffffff16565b611fe290919063ffffffff16565b6125af90919063ffffffff16565b612534565b5080806127a890612d37565b9150506126b5565b50565b6000819050919050565b6127c6816127b3565b82525050565b60006020820190506127e160008301846127bd565b92915050565b600081519050919050565b600082825260208201905092915050565b60005b83811015612821578082015181840152602081019050612806565b60008484015250505050565b6000601f19601f8301169050919050565b6000612849826127e7565b61285381856127f2565b9350612863818560208601612803565b61286c8161282d565b840191505092915050565b60006020820190508181036000830152612891818461283e565b905092915050565b600080fd5b600073ffffffffffffffffffffffffffffffffffffffff82169050919050565b60006128c98261289e565b9050919050565b6128d9816128be565b81146128e457600080fd5b50565b6000813590506128f6816128d0565b92915050565b612905816127b3565b811461291057600080fd5b50565b600081359050612922816128fc565b92915050565b6000806040838503121561293f5761293e612899565b5b600061294d858286016128e7565b925050602061295e85828601612913565b9150509250929050565b60008115159050919050565b61297d81612968565b82525050565b60006020820190506129986000830184612974565b92915050565b6000602082840312156129b4576129b3612899565b5b60006129c2848285016128e7565b91505092915050565b6129d4816128be565b82525050565b60006020820190506129ef60008301846129cb565b92915050565b600080600060608486031215612a0e57612a0d612899565b5b6000612a1c868287016128e7565b9350506020612a2d868287016128e7565b9250506040612a3e86828701612913565b9150509250925092565b600060208284031215612a5e57612a5d612899565b5b6000612a6c84828501612913565b91505092915050565b600060ff82169050919050565b612a8b81612a75565b82525050565b6000602082019050612aa66000830184612a82565b92915050565b60008060408385031215612ac357612ac2612899565b5b6000612ad185828601612913565b9250506020612ae285828601612913565b9150509250929050565b60008060408385031215612b0357612b02612899565b5b6000612b11858286016128e7565b9250506020612b22858286016128e7565b9150509250929050565b600060a082019050612b4160008301886127bd565b612b4e60208301876127bd565b612b5b60408301866127bd565b612b6860608301856127bd565b612b756080830184612974565b9695505050505050565b7f4e487b7100000000000000000000000000000000000000000000000000000000600052602260045260246000fd5b60006002820490506001821680612bc657607f821691505b602082108103612bd957612bd8612b7f565b5b50919050565b7f4e487b7100000000000000000000000000000000000000000000000000000000600052601160045260246000fd5b6000612c19826127b3565b9150612c24836127b3565b9250828201905080821115612c3c57612c3b612bdf565b5b92915050565b7f54727920746f20756e7374616b65206d6f7265207468616e207374616b65642060008201527f616d6f756e740000000000000000000000000000000000000000000000000000602082015250565b6000612c9e6026836127f2565b9150612ca982612c42565b604082019050919050565b60006020820190508181036000830152612ccd81612c91565b9050919050565b7f4e487b7100000000000000000000000000000000000000000000000000000000600052603260045260246000fd5b6000612d0e826127b3565b9150612d19836127b3565b9250828203905081811115612d3157612d30612bdf565b5b92915050565b6000612d42826127b3565b91507fffffffffffffffffffffffffffffffffffffffffffffffffffffffffffffffff8203612d7457612d73612bdf565b5b600182019050919050565b7f4e487b7100000000000000000000000000000000000000000000000000000000600052603160045260246000fd5b7f414c454144595f494e5f4c4f4242590000000000000000000000000000000000600082015250565b6000612de4600f836127f2565b9150612def82612dae565b602082019050919050565b60006020820190508181036000830152612e1381612dd7565b9050919050565b600081519050612e29816128d0565b92915050565b600060208284031215612e4557612e44612899565b5b6000612e5384828501612e1a565b91505092915050565b7f4e4f545f4f574e45520000000000000000000000000000000000000000000000600082015250565b6000612e926009836127f2565b9150612e9d82612e5c565b602082019050919050565b60006020820190508181036000830152612ec181612e85565b9050919050565b7f416d6f756e7420646f65736e277420657175616c206d73672e76616c75650000600082015250565b6000612efe601e836127f2565b9150612f0982612ec8565b602082019050919050565b60006020820190508181036000830152612f2d81612ef1565b9050919050565b60008160601b9050919050565b6000612f4c82612f34565b9050919050565b6000612f5e82612f41565b9050919050565b612f76612f71826128be565b612f53565b82525050565b6000819050919050565b612f97612f92826127b3565b612f7c565b82525050565b6000819050919050565b6000819050919050565b612fc2612fbd82612f9d565b612fa7565b82525050565b6000612fd48287612f65565b601482019150612fe48286612f86565b602082019150612ff48285612f86565b6020820191506130048284612fb1565b60208201915081905095945050505050565b7f4e487b7100000000000000000000000000000000000000000000000000000000600052601260045260246000fd5b6000613050826127b3565b915061305b836127b3565b92508261306b5761306a613016565b5b828206905092915050565b6000819050919050565b600061308b82613076565b91507f7fffffffffffffffffffffffffffffffffffffffffffffffffffffffffffffff82036130bd576130bc612bdf565b5b600182019050919050565b60006040820190506130dd60008301856127bd565b6130ea60208301846127bd565b9392505050565b7f4e4f545f494e5f4c4f4242590000000000000000000000000000000000000000600082015250565b6000613127600c836127f2565b9150613132826130f1565b602082019050919050565b600060208201905081810360008301526131568161311a565b9050919050565b7f45524332303a2064656372656173656420616c6c6f77616e63652062656c6f7760008201527f207a65726f000000000000000000000000000000000000000000000000000000602082015250565b60006131b96025836127f2565b91506131c48261315d565b604082019050919050565b600060208201905081810360008301526131e8816131ac565b9050919050565b7f4f776e61626c653a206e6577206f776e657220697320746865207a65726f206160008201527f6464726573730000000000000000000000000000000000000000000000000000602082015250565b600061324b6026836127f2565b9150613256826131ef565b604082019050919050565b6000602082019050818103600083015261327a8161323e565b9050919050565b7f45524332303a20617070726f76652066726f6d20746865207a65726f2061646460008201527f7265737300000000000000000000000000000000000000000000000000000000602082015250565b60006132dd6024836127f2565b91506132e882613281565b604082019050919050565b6000602082019050818103600083015261330c816132d0565b9050919050565b7f45524332303a20617070726f766520746f20746865207a65726f20616464726560008201527f7373000000000000000000000000000000000000000000000000000000000000602082015250565b600061336f6022836127f2565b915061337a82613313565b604082019050919050565b6000602082019050818103600083015261339e81613362565b9050919050565b7f4f776e61626c653a2063616c6c6572206973206e6f7420746865206f776e6572600082015250565b60006133db6020836127f2565b91506133e6826133a5565b602082019050919050565b6000602082019050818103600083015261340a816133ce565b9050919050565b7f45524332303a20696e73756666696369656e7420616c6c6f77616e6365000000600082015250565b6000613447601d836127f2565b915061345282613411565b602082019050919050565b600060208201905081810360008301526134768161343a565b9050919050565b7f45524332303a207472616e736665722066726f6d20746865207a65726f20616460008201527f6472657373000000000000000000000000000000000000000000000000000000602082015250565b60006134d96025836127f2565b91506134e48261347d565b604082019050919050565b60006020820190508181036000830152613508816134cc565b9050919050565b7f45524332303a207472616e7366657220746f20746865207a65726f206164647260008201527f6573730000000000000000000000000000000000000000000000000000000000602082015250565b600061356b6023836127f2565b91506135768261350f565b604082019050919050565b6000602082019050818103600083015261359a8161355e565b9050919050565b7f45524332303a207472616e7366657220616d6f756e742065786365656473206260008201527f616c616e63650000000000000000000000000000000000000000000000000000602082015250565b60006135fd6026836127f2565b9150613608826135a1565b604082019050919050565b6000602082019050818103600083015261362c816135f0565b9050919050565b600061363e826127b3565b9150613649836127b3565b9250828202613657816127b3565b9150828204841483151761366e5761366d612bdf565b5b5092915050565b600060608201905061368a60008301866129cb565b61369760208301856129cb565b6136a460408301846127bd565b949350505050565b7f45524332303a206d696e7420746f20746865207a65726f206164647265737300600082015250565b60006136e2601f836127f2565b91506136ed826136ac565b602082019050919050565b60006020820190508181036000830152613711816136d5565b9050919050565b600081905092915050565b50565b6000613733600083613718565b915061373e82613723565b600082019050919050565b600061375482613726565b9150819050919050565b6000613769826127b3565b9150613774836127b3565b92508261378457613783613016565b5b82820490509291505056fea26469706673582212201127190303c10d7502ffc516c332600f0048082f983dcf166a90bf364c1e899b64736f6c63430008110033",
  "linkReferences": {},
  "deployedLinkReferences": {}
}